:020000040800F2
:100000001849012439030008C34500089931000844
:10001000C14500088B0500082D4C000800000000B9
:100020000000000000000000000000000948000877
:10003000AD07000800000000C5450008894A000817
:100040005703000857030008570300085703000828
:100050005703000857030008570300085703000818
:100060005703000857030008570300085703000808
:1000700057030008570300085703000857030008F8
:1000800057030008570300085703000857030008E8
:1000900057030008570300085703000857030008D8
:1000A00057030008570300085703000857030008C8
:1000B00057030008570300085703000857030008B8
:1000C00057030008570300085703000857030008A8
:1000D0005703000857030008570300085703000898
:1000E00057030008570300080000000057030008EA
:1000F0005703000857030008570300085703000878
:100100005703000857030008570300085703000867
:100110005703000857030008570300085703000857
:100120005703000857030008570300085703000847
:100130005703000857030008570300085703000837
:1001400000000000000000000000000000000000AF
:100150005703000857030008570300085703000817
:100160005703000857030008570300085703000807
:100170005703000857030008570300080000000059
:1001800057030008570300085703000857030008E7
:1001900057030008570300085703000857030008D7
:1001A00057030008570300085703000857030008C7
:1001B00057030008570300085703000857030008B7
:1001C00057030008570300085703000857030008A7
:1001D0005703000857030008570300085703000897
:1001E0005703000857030008570300085703000887
:1001F0005703000857030008570300085703000877
:100200005703000857030008570300085703000866
:100210005703000857030008570300085703000856
:1002200057030008570300085703000800000000A8
:100230005703000857030008000000005703000898
:100240005703000857030008570300085703000826
:100250005703000857030008570300085703000816
:100260005703000857030008570300085703000806
:100270005703000857030008570300080000000058
:100280005703000857030008570300080000000048
:10029000000000005703000800F002F800F03CF8EE
:1002A0000AA090E8000C82448344AAF10107DA45D1
:1002B00001D100F031F8AFF2090EBAE80F0013F0E7
:1002C000010F18BFFB1A43F001031847684A0000EA
:1002D000884A0000103A24BF78C878C1FAD852077B
:1002E00024BF30C830C144BF04680C6070470000B0
:1002F0000023002400250026103A28BF78C1FBD82F
:10030000520728BF30C148BF0B6070471FB504F0CB
:10031000FDFC1FBD10B510BD00F0FDF81146FFF744
:10032000F5FF04F0A9FC00F01BF903B4FFF7F2FF9E
:1003300003BC00F023F900000A4880470A488047C0
:100340000A480047FEE7FEE7FEE7FEE7FEE7FEE7B6
:10035000FEE7FEE7FEE7FEE705480649064A074BCB
:1003600070470000B5070008354B000899020008E7
:100370001843012418490124184501241845012473
:10038000032A40F2308010F0030C00F0158011F8C1
:10039000013BBCF1020F624498BF11F801CB00F899
:1003A000013B38BF11F8013BA2F1040298BF00F8ED
:1003B00001CB38BF00F8013B11F0030300F0578078
:1003C000083AC0F0088051F8043B083A51F804CBD1
:1003D000A0E80810F5E7121D5CBF51F8043B40F897
:1003E000043BAFF30080D20724BF11F8013B11F8A2
:1003F00001CB48BF11F8012B24BF00F8013B00F8E6
:1004000001CB48BF00F8012B704702F0FF0343EA1D
:10041000032242EA024200F05EB84FF0000200B54B
:10042000134694469646203922BFA0E80C50A0E817
:100430000C50B1F12001BFF4F7AF090728BFA0E8C5
:100440000C5048BF0CC05DF804EB890028BF40F891
:10045000042B08BF704748BF20F8022B11F0804FD3
:1004600018BF00F8012B704770477047704710B5F0
:10047000203AC0F00B80B1E81850203AA0E818509C
:10048000B1E81850A0E81850BFF4F5AF5FEA027C5D
:1004900024BFB1E81850A0E8185044BF18C918C0CC
:1004A000BDE810405FEA827C24BF51F8043B40F86D
:1004B000043B08BF7047D20728BF31F8023B48BF52
:1004C00011F8012B28BF20F8023B48BF00F8012B90
:1004D00070474FF000020429C0F0128010F0030CA6
:1004E0003FF49DAFCCF1040CBCF1020F18BF00F833
:1004F000012BA8BF20F8022BA1EB0C01FFF78FBF47
:100500005FEAC17C24BF00F8012B00F8012B48BF33
:1005100000F8012B7047754600F02CF8AE46050038
:100520006946534620F00700854618B020B5FFF70E
:1005300013FFBDE820404FF000064FF000074FF0DA
:1005400000084FF0000B21F00701AC46ACE8C009F1
:10055000ACE8C009ACE8C009ACE8C0098D467047FA
:1005600010B50446AFF300802046BDE81040FFF709
:10057000DCBE000000487047784201240149182081
:10058000ABBEFEE7260002007047FEE72DE9F04F04
:10059000804E804FDFF8FC911836DFF8F8A148371D
:1005A0000468856D0AF1300ADFF8ECB14C45DFF8DC
:1005B000ECC1DFF8ECE16DD0B4426BD0544569D0AA
:1005C000BC4267D0DFF8D081A8F11808444561D05B
:1005D0005C455FD064455DD074455BD0DFF8C48175
:1005E000444557D0DFF8BC8108F11808444551D084
:1005F000DFF8B08108F1300844454BD0DFF8A48122
:1006000008F14808444545D0DFF8988108F16008B2
:1006100044453FD0DFF88C8108F17808444539D053
:10062000DFF8808108F19008444533D0DFF8748109
:1006300008F1A80844452DD0DFF86C81444529D045
:10064000DFF8648108F11408444523D0DFF85881AD
:1006500008F1280844451DD0DFF84C8108F13C081A
:10066000444517D0DFF8408108F15008444511D0C7
:10067000DFF8348108F1640844450BD0DFF82881A5
:1006800008F17808444505D0DFF81C8108F18C0892
:10069000444509D1D0E91948C4F80480C46E1CB19E
:1006A000D0E91C48C4F8048004684C452ED0B442FC
:1006B0002CD054452AD0BC4228D0374E183EB442E4
:1006C00024D05C4522D0644520D074451ED0354EE0
:1006D000B4421BD0334E1836B44217D0314E3036A8
:1006E000B44213D02F4E4836B4420FD02D4E603650
:1006F000B4420BD02B4E7836B44207D0294E9036F8
:10070000B44203D0274EA836B44215D190F85C60AD
:100710003F2406F01F06B440AC600468256825F449
:10072000802525602EE09A600068C160BDE8F08FEA
:1007300099600068C260F9E71B4EB4421BD01A4EA4
:100740001436B44217D0184E2836B44213D0164E81
:100750003C36B4420FD0144E5036B4420BD0124E39
:100760006436B44207D0104E7836B44203D00E4EF1
:100770008C36B442DAD190F85C60012406F01F0692
:10078000B4406C60046863608368402B0368CFD119
:10079000C9E700001000024088000240A0000240AB
:1007A000B80002401004024008540258704772B664
:1007B000FEE70000054805490839026842F00202D8
:1007C000026008688004FCD5704700000C4802589D
:1007D0002DE9F84F044600F05DFD00903CB194F81F
:1007E0003500022806D0802161650020E4E0012068
:1007F000BDE8F88FC74DC74EC6491835206830365A
:10080000DFF81483DFF814938842DFF814A3DFF8CD
:1008100014B32ED0A8422CD0B0422AD0404528D0C4
:10082000484526D0504524D0584522D0BD4A1832DC
:1008300090421ED0BC4A90421BD0BB4A1832904214
:1008400017D0B94A3032904213D0B74A483290425A
:100850000FD0B54A603290420BD0B34A7832904202
:1008600007D0B14A9032904203D0AF4AA8329042AA
:1008700009D1026822F01E0202602068426922F05B
:100880008002426103E0026822F00E0202602768E3
:100890008F4238464DD0A8424BD0B04249D0404557
:1008A00047D0484545D0504543D0584541D09D4A52
:1008B000183290423DD09C4A90423AD09A4A18321F
:1008C000904236D0984A3032904232D0964A4832DE
:1008D00090422ED0944A603290422AD0924A783286
:1008E000904226D0904A9032904222D08E4AA8322E
:1008F00090421ED08D4A90421BD08C4A14329042B6
:1009000017D08A4A2832904213D0884A3C3290420B
:100910000FD0864A503290420BD0844A64329042C3
:1009200007D0824A7832904203D0804A8C32974274
:1009300004D1206E026822F480720260754920683A
:10094000884228D0A84226D0B04224D0404522D0A8
:10095000484520D050451ED058451CD0714918310B
:10096000884218D07049884215D06F4918318842A2
:1009700011D06D49303188420DD06B4948318842E1
:1009800009D069496031884205D067497831884289
:1009900001D065499031016821F0010101600EE04C
:1009A00000F078FC0099401A052808D920226265D9
:1009B0000321002084F8351084F8340017E73868E4
:1009C000C007EDD1534A0121206890422ED0A842A1
:1009D0002CD0B0422AD0404528D0484526D050459A
:1009E00024D0584522D04F4B183398421ED04E4B3E
:1009F00098421BD04C4B1833984217D04A4B303397
:100A0000984213D0484B483398420FD0464B60333E
:100A100098420BD0444B7833984207D0424B9033E6
:100A2000984203D0404BA833984208D194F85C70A8
:100A30003F23A06D07F01F07BB40836007E094F8D9
:100A40005C30A06D03F01F0301FA03F343602068DC
:100A500090424DD0A8424BD0B04249D0404547D0FB
:100A6000484545D0504543D0584541D02D4A1832CD
:100A700090423DD02C4A90423AD02B4A18329042B4
:100A800036D0294A3032904232D0274A48329042FA
:100A90002ED0254A603290422AD0234A78329042A2
:100AA00026D0214A9032904222D01F4AA83290424A
:100AB0001ED01E4A90421BD01C4A1432904217D0BE
:100AC0001A4A2832904213D0184A3C3290420FD032
:100AD000164A503290420BD0144A6432904207D0EA
:100AE000124A7832904203D0104A8C3290420BD195
:100AF000D4E919024260E06E30B1026822F48072DB
:100B00000260D4E91C024260002084F8351084F8A9
:100B100034006DE6100002405800024070000240B0
:100B200088000240A000024010040240085402580D
:100B30002DE9F05F28B190F83510022904D080210A
:100B400041650120BDE8F09F904C904B0168183C36
:100B500018338E4ADFF83C92A1428D4CDFF838E220
:100B60008E4FDFF83CB2DFF83CA28F4D8F4E31D074
:100B700091422FD099422DD0A1422BD0494529D066
:100B8000714527D0B94225D0DFF810C20CF1180CFE
:100B900061451FD0DFF808C2ACF1600C614519D087
:100BA000DFF8FCC1ACF1480C614513D0DFF8F0C1AF
:100BB000ACF1300C61450DD0DFF8E4C1ACF1180C9C
:100BC000614507D0594505D0514503D0A94201D010
:100BD000B1422CD1DFF8B4C14FF0040880F8358061
:100BE000ACF1180C61451DD091421BD0994219D02F
:100BF000A14217D0494515D0714513D0B94211D043
:100C00006648183081420DD065486038814209D06D
:100C100063484838814205D061483038814201D06C
:100C20005F481838086820F001000860ABE0D1F890
:100C300000C02CF00E08DFF854C1C1F80080ACF100
:100C4000180C0168614527D0914225D0994223D0E4
:100C5000A14221D049451FD071451DD0B9421BD0BA
:100C6000DFF838C10CF1180C614515D0DFF830C140
:100C7000ACF1600C61450FD0DFF824C1ACF1480C39
:100C8000614509D0DFF818C1ACF1300C614503D0E3
:100C9000DFF80CC1ACF1180CD1F800C02CF0010C3D
:100CA000C1F800C0DFF8E4804FF0010C0168A8F142
:100CB0001808414546D0914244D0994242D0A142C1
:100CC00040D049453ED071453CD0B9423AD0334A34
:100CD0001832914236D0324A603A914232D0304A8C
:100CE000483A91422ED02E4A303A91422AD02C4A8C
:100CF000183A914226D0594524D0514522D0A942D4
:100D000020D0B1421ED02A4A91421BD0284A143228
:100D1000914217D0264A2832914213D0244A3C32BD
:100D200091420FD0224A503291420BD0204A643275
:100D3000914207D01E4A7832914203D01C4A8C322D
:100D4000914218D1016E0A6822F480720A6090F80C
:100D50005C20816D02F01F020CFA02F24A60D0E9B9
:100D600019124A60C16E31B10A6822F480720A60B9
:100D7000D0E91C124A600022016D80F835C080F86D
:100D8000342001B188470020DCE600002800024042
:100D9000580002407000024088000240A00002405B
:100DA0007004024088040240A0040240B8040240DB
:100DB00008540258406D704790F8350070470000A5
:100DC0002DE9F84F04008C464FF00000009014D03D
:100DD00094F83400012812D094F8355001200021F5
:100DE00084F83400012D0CD0C00260650120009011
:100DF00084F834100098BDE8F88F0120FBE702204A
:100E0000F9E78C4D0226206884F83560A8428A4DA7
:100E100061658A4E8A4FDFF82C82DFF82C92DFF86A
:100E20002CA2DFF82CB226D0A84224D0B04222D087
:100E3000B84220D040451ED048451CD050451AD05D
:100E4000584518D08349884215D0824918318842C4
:100E500011D08049303188420DD07E4948318842D6
:100E600009D07C496031884205D07A49783188427E
:100E700001D078499031016821F00101016061469B
:100E80002046FFF783FB6B49206888422CD0A8429C
:100E90002AD0B04228D0B84226D0404524D0484578
:100EA00022D0504520D058451ED06A4A90421BD0CF
:100EB000684A1832904217D0664A3032904213D0B6
:100EC000644A483290420FD0624A603290420BD05E
:100ED000604A7832904207D05E4A9032904203D006
:100EE0005C4AA83290420CD1026822F01E0242F005
:100EF00016020260206C88B12068026842F0080285
:100F00000BE0026822F00E0242F00A020260206C3E
:100F100020B12068026842F0040202602068884222
:100F20004BD0A84249D0B04247D0B84245D0404506
:100F300043D0484541D050453FD058453DD0454A23
:100F400090423AD0434A1832904236D0414A303229
:100F5000904232D03F4A483290422ED03D4A6032D1
:100F600090422AD03B4A7832904226D0394A903279
:100F7000904222D0374AA83290421ED0364A904240
:100F80001BD0354A1432904217D0334A283290424F
:100F900013D0314A3C3290420FD02F4A5032904207
:100FA0000BD02D4A6432904207D02B4A78329042BF
:100FB00003D0294A8C3290420DD1206E0268D203B0
:100FC00003D5026842F480720260E06E18B10268D4
:100FD00042F4807202602068884226D0A84224D061
:100FE000B04222D0B84220D040451ED048451CD047
:100FF00050451AD0584518D01649884215D0154981
:101000001831884211D01349303188420DD011492E
:101010004831884209D00F496031884205D00D49D6
:101020007831884201D00B499031016841F00101CB
:101030000160DFE61000024028000240400002404C
:10104000580002407000024088000240A0000240A8
:10105000B800024010040240085402582DE9F84F2D
:1010600003247D4D00234FF001094FF0B04B4FF0AA
:101070000F0AE9E009FA03F73A4076D00E7906F054
:101080000306012E01D0022E18D1D0F808C04FEA75
:10109000430ECE6804FA0EF82CEA080C06FA0EF697
:1010A00046EA0C068660D0F804C00E792CEA070CDC
:1010B000C6F300169E4046EA0C0646600E79F643DB
:1010C000B6070BD0C6684FEA43088F6804FA08FCDD
:1010D00026EA0C0607FA08F73743C7600E7906F0D0
:1010E0000306022E12D1DE080F694FEA437C00EBA3
:1010F0008606B646366A4FEADC6C0AFA0CF807FA3E
:101100000CF726EA08063743CEF820700F790668F8
:101110004FEA430807F0030704FA08FC07FA08F748
:1011200026EA0C06374307604E6816F4403F1CD091
:101130004A4E376847F00207376036689F0706F067
:101140000206009623F0030606F1B046B6463F0FAE
:10115000D6F80864DFF808810AFA07FC404526EA59
:101160000C0603D14FF0000C41E06CE0DFF8F4C056
:10117000604502D14FF0010C39E0DFF8ECC060456A
:1011800002D14FF0020C32E0DFF8E0C0604502D13E
:101190004FF0030C2BE0DFF8D8C0604502D14FF0D0
:1011A000040C24E0DFF8CCC0604502D14FF0050C00
:1011B0001DE0DFF8C4C0604502D14FF0060C16E018
:1011C000DFF8B8C0604502D14FF0070C0FE0DFF840
:1011D000B0C0604502D14FF0080C08E0DFF8A4C0B1
:1011E000604502D14FF0090C01E04FF00A0C0CFAF7
:1011F00007FC4CEA060CCEF808C44F68DBF8006028
:10120000FF0226EA020600D516435F46CBF80060CF
:10121000D1F804C0DBF804605FEA8C2C26EA0206F1
:1012200000D516437E606E684F6826EA0206BF034B
:1012300000D516436E602E684F6826EA0206FF034B
:1012400000D516432E605B1C0A6832FA03F67FF461
:1012500011AFBDE8F88F000080000058F444025838
:10126000000002580004025800080258000C0258FE
:10127000001002580014025800180258001C0258AE
:10128000002002580024025801480068000C7047F2
:101290000010005C014880687047000004000024D2
:1012A00030B590F84120202A24D190F84020012A1E
:1012B00020D0012380F84030242280F841202023D0
:1012C00000240268156825F001051560026815689C
:1012D00025F480551560026815680D431560016896
:1012E0000A6842F001020A6080F8413080F840400C
:1012F000002030BD022030BD30B590F84120202ABA
:1013000022D190F84020012A1ED0012380F84030DD
:10131000242280F84120202400250268136823F04D
:10132000010313600268136823F4706343EA012128
:10133000116001680A6842F001020A6080F84140C9
:1013400080F84050002030BD022030BD704770470B
:10135000704790F84100704770B5040004D094F8CD
:101360004100002510B106E0012070BD204684F840
:10137000405000F01BFC242084F8410020680168E4
:1013800021F001010160D4E9001020F070600861D3
:101390002068816821F400418160E06821680128AB
:1013A000A06830D040F404408860E06802282068DB
:1013B00041682BD021F40061416020682021154A4A
:1013C0004368134343602068C26822F40042C2604D
:1013D00054F8106B0DCC104340EA0320F06054F831
:1013E0001C3CD4E900021043186054F81C0D02683C
:1013F00042F001020260656484F84110256384F8BC
:101400004250002070BD40F40040CDE741F400613F
:10141000D2E70000008000022DE9FC5F00250446B1
:101420001E4693460195894690F84100AA46202819
:101430007BD120688069C043000476D594F84000D1
:10144000012872D0012184F8401024204FF0200898
:1014500084F841006564E06801280AD0344A3549BF
:1014600049EA0200084021684860FFF713FF074679
:101470000AE0314A3149F3E7701C05D0FFF70AFF53
:10148000C01BB04246D8A6B3206881698269C1F307
:101490004010C2F300110843EED020688169C943AF
:1014A000C90619D50022334620212046009702F0B4
:1014B00050FF38B1606C042818D12168C1F81C8035
:1014C00065641AE02168C1F81C8084F8418000201E
:1014D00084F84050BDE8FC9F1021C16100223346D2
:1014E00020212046009702F034FF18B14FF0010A86
:1014F00003E00FE02168C1F81C800198401C0190B6
:101500005845014604D2BAF1010F01D14FF0000A4B
:101510005945A0D384F84180606C84F8405040F075
:10152000200060640120D5E7FFE70220D2E7000039
:1015300000280002FF2B000200200002FF2300020F
:101540007047704770B50C4DAC6884B10020606086
:10155000A860A0632862E06828B9696A04F14000C5
:101560002268FEF70DFFE16A09B120468847284648
:10157000BDE8704003F07DB9200000242DE9FF4F45
:1015800081B0044690F8410099469046DDF838B0A5
:1015900020287BD194F84000012877D0012084F8DE
:1015A0004000FFF777FE0122064619230090D10381
:1015B000204602F0CEFE002853D1414921220025C9
:1015C000C4F82480102084F84120FF2784F84200CA
:1015D0006564A4F82A90608D4FF080794FF0007A0E
:1015E0006563FF2802D94B46278505E0608D534689
:1015F00020850004000C10D0226898F8000090624A
:10160000606A401C6062608D401E6085208D401EB7
:101610002085401C0091C2B201E000220091029995
:10162000204602F069FE13E002F0FDFEC8B9606AD0
:10163000216800788862606A401C6062608D401E8C
:101640006085208D401E80B22085618D01B160B122
:10165000608D3246594600282046E5D102F0B7FE9B
:10166000E0B1012005B0BDE8F08F00225B4680218B
:101670002046009602F06DFE0028F2D1608DFF2812
:1016800005D927853A464B460095C8E716E0608D98
:1016900053462085009594F82820C0E72168202033
:1016A000084AC86121684B6813404B6084F84100C8
:1016B00084F84250002084F84050D3E70220D1E75C
:1016C0000020008000E800FE2DE9FF4F83B00446B3
:1016D00090F841009A469346DDE91087DDF848907E
:1016E000202874D15FEA080014D09FB194F840001C
:1016F00001286CD0012084F84000FFF7CBFD0122C7
:10170000064619230090D103204602F022FE00284D
:1017100071D103E04FF4007060646CE00025C4F800
:101720002480222184F84110402084F8420065641E
:101730006785534665635A4604992046CDE900966D
:1017400002F016FC10B184F8405054E0618DFF2780
:1017500034484FF08078FF294FF0007A04D927856C
:101760003A464346009005E0618D5346218500903E
:1017700094F828202046049902F0BEFD00224B4632
:1017800004212046009602F0E4FDA0BB2068616AB7
:10179000406A0870606A401C6062208D401E81B201
:1017A0002185608D401E6085608DD8B1D1B9002241
:1017B0004B4680212046009602F0CBFDD8B9608DC3
:1017C000FF2805D927853A464346009506E026E0DE
:1017D000608D53462085009594F828202046049972
:1017E00002F08AFD608D0028C8D132464946204665
:1017F00002F0EDFD18B1012007B0BDE8F08F2168BF
:101800002020094AC86121684B6813404B6084F866
:10181000410084F84250002084F84050ECE7022058
:10182000EAE700000024008000E800FE2DE9F8430C
:10183000044689461E46DDE9080894F8411020292F
:1018400074D130B3B8F1000F23D021688B69DB432A
:101850001B046BD594F84030012B67D0DFF8D0C063
:101860002223402784F84130002584F842706564C3
:10187000A4F82A80C4F82CC0C4F84C90678D2D4B76
:10188000636301236062FF2F84F8403004D9FF2393
:1018900003E04FF4007027E0638D012E2385D3B25F
:1018A00026D0120A8A6223652027E16B29B3224AD7
:1018B000CA63E26B2149D1640246E16B0D64E16BBE
:1018C0000D65D4F83CC02168238D60462431FFF7B4
:1018D00077FAD0B184F8417084F84250606C40F0DF
:1018E000100000BF84F8405060640120BDE8F88318
:1018F0004FF0FF328B622265D6E784F8417084F89E
:101900004250606C40F08000ECE70D4800234946EF
:1019100000902046F2B202F0EFFC0121204684F84C
:10192000405001F06DFD0020E0E7FFE70220DDE719
:101930000000FFFFED3C0008FD320008B131000857
:10194000002000802DE9F8438946044690F84100C4
:10195000DDE90861202841D1AEB3A1B320688569D3
:10196000ED432D043AD594F84050012D36D0002592
:101970004FF0220C012784F84070194F4FF04008B7
:1019800084F841C084F84280656466626185E762DC
:10199000C4F84C90012B13496163D1B219D0120ADB
:1019A00082622165DAB21048002349460090204641
:1019B00002F0A2FC0121204684F8405001F020FDF5
:1019C0000020BDE8F883FFE74FF400706064012059
:1019D000F7E74FF0FF3281622265E3E70220F0E78C
:1019E0000000FFFF293E0008002000802DE9F84399
:1019F0008946044690F841001E46DDE90818202873
:101A000070D131B3B8F1000F23D020688369DB4374
:101A10001B0467D594F84030012B63D0DFF8C8C0B1
:101A20002123402784F84130002584F84270656402
:101A3000A4F82A80C4F82CC0C4F84C90678D2B4BB6
:101A4000636301236162FF2F84F8403004D9FF23D0
:101A500003E04FF4007023E0638D012E2385D3B2A1
:101A600022D0120A826223652027A06B08B3204A85
:101A7000C263A26B1F48D064A06B0564A06B0565B0
:101A80002268238DA06B2832FFF79AF9C8B184F839
:101A9000417084F84250606C40F0100084F840506F
:101AA00060640120BDE8F8834FF0FF328362226555
:101AB000DAE784F8417084F84250606C40F08000AE
:101AC000ECE70D484946F2B20090C302204602F00E
:101AD00013FC0121204684F8405001F091FC0020C5
:101AE000E0E7FFE70220DDE70000FFFFED3C000834
:101AF0004F330008B1310008002000802DE9F84381
:101B0000044690F84100DDE90865202845D1CEB3B0
:101B1000C5B320688769FF433F043ED594F8407001
:101B2000012F3AD0012784F840704FF000094FF0A0
:101B300021084FF0400C84F84180DFF8648084F87D
:101B400042C0C4F84490A4F8289066626585C4F841
:101B50002C80E164012B134D6563D5B218D0120AB5
:101B600082622565DAB210480090C302204602F076
:101B7000C3FB0121204684F8409001F041FC002085
:101B8000BDE8F883FFE74FF4007060640120F7E7D9
:101B90004FF0FF3285622265E4E70220F0E70000A3
:101BA0000000FFFF293E000800200080F0B5B7B01C
:101BB0000446142130A8FEF730FCC0216846FEF729
:101BC0002CFC2F491226206804272C4D0024884223
:101BD00027D1002021940821CDE90010684600F0AB
:101BE00067F908B1FEF7E3FD286840F002002860BD
:101BF000286830A900F0020035904FF44060309022
:101C0000CDE931641F48CDE93347FFF727FA1B4878
:101C10000830016841F480010160006800F4800030
:101C200029E01949884227D1002026941021CDE9C6
:101C30000010684600F03CF908B1FEF7B8FD2868CE
:101C400040F008002860286830A900F008003590AE
:101C50004FF440503090CDE931640C48CDE9334722
:101C6000FFF7FCF905481430016841F0800101607C
:101C7000006800F08000359037B0F0BDE0440258B5
:101C80000058004000040258001C0058000C025884
:101C9000704770470248816802781144816070473C
:101CA00004000024032010B500F0C6F800F004FF83
:101CB0000F4A104914681368C4F3032203F00F039A
:101CC0008A5CC95C02F01F0201F01F01D0400A4A81
:101CD00020FA01F11160094908600F2000F010F8A6
:101CE00008B1012010BD00F079F8002010BD0000FF
:101CF00018440258164D0008140000241000002457
:101D000070B50D4D04462878A0B14FF47A71B1FB3F
:101D1000F0F00A490968B1FBF0F001F02AFA48B97D
:101D2000102C07D200222146501E00F065F800203A
:101D30006C6070BD012070BD040000241000002400
:101D4000154BF0B5083B427813491A600B680A1F1F
:101D500023F001030B6043681360057BC67A827A27
:101D6000437B2D07847B45EA0665C77B90F809C055
:101D7000067A90F800E045EAC24040EA834040EA33
:101D8000444040EA074040EA0C2040EA460040EA6E
:101D90000E000860F0BD0000A0ED00E0BFF35F8F13
:101DA000044800210368034A23F48033036070323F
:101DB0001160704724ED00E0074A40F00100064939
:101DC00070321060086840F480300860BFF34F8FB5
:101DD000BFF36F8F7047000024ED00E0054808B5A1
:101DE000016841F002010160006800F0020000900B
:101DF00008BD0000F44402580E4BF0B41B680D46B9
:101E0000C3F30223C3F10706042E00D90426191DCB
:101E1000072901D2002300E0DB1E012404FA06F1A9
:101E20009C40491E2940641E994014402143F0BC47
:101E300002F0FDBE0CED00E0064900F0070210B50F
:101E40004FF6FF040868044B204040EA0220184384
:101E5000086010BD0CED00E00000FA05134970B5F4
:101E60000A68D243520705D5096801F0070181428B
:101E700013D118E00A6822F0070202430A60FFF754
:101E800009FA0A4D4FF47A760446083D07E000BF90
:101E9000FFF700FA001BB04201D9012070BD28688D
:101EA000C0438004F4D4002070BD00000C480258E8
:101EB0002DE9FE4F0546DFF8E48350F8081B0024A7
:101EC000F64FC943019005F12800264608F1240881
:101ED000009008011DD4A86E50B1B0F5801F0CD041
:101EE000B0F5001F0ED0B0F5401F1ED001240FE04A
:101EF000386840F40030386017E00198022102F0A1
:101F000063FB03E00098022102F0EEFB04000CD01A
:101F100026462888C043C00523D4A86D05281ED2B4
:101F2000DFE800F00C11161B1B00AA6ED8F8001099
:101F300021F440111143C8F80010EAE7386840F472
:101F40000030386009E00198002102F03DFB03E019
:101F50000098002102F0C8FB044674B100E001249F
:101F600026462888C043800528D4E86D80281ED0E6
:101F70000CDC90B140280ED114E0AA6DD8F8001006
:101F800021F007011143C8F80010EAE7C02813D078
:101F9000B0F5807F10D001240FE0386840F40030A5
:101FA000386009E00198002102F00EFB03E0009880
:101FB000002102F099FB04469CB126462888DFF8F0
:101FC000DC92C04309F12C0940052CD4D5F8A800B7
:101FD000B0F5800F20D00DDCA0B1B0F5001F0FD1FF
:101FE00015E0EA6DD8F8001021F4E0711143C8F84B
:101FF0000010E3E7B0F5C00F13D0B0F5000F10D01C
:1020000001240FE0386840F40030386009E001989E
:10201000002102F0D9FA03E00098002102F064FBED
:1020200004467CB126462888C04300052DD4D5F847
:10203000AC00B0F1007F21D00EDCA8B1B0F1807F00
:1020400010D116E0D5F8A820D9F8001021F46001CD
:102050001143C9F80010E6E7B0F1407F13D0B0F1AA
:10206000806F10D001240FE0386840F400303860F1
:1020700009E00198002102F0A7FA03E0009800218E
:1020800002F032FB044674B126462868C043800142
:102090001FD4E86CD8B110280FD0202812D03028D7
:1020A00015D0012414E0D5F8AC20D9F8001021F0A7
:1020B000E0611143C9F80010E7E7386840F40030E8
:1020C000386004E00198022102F07EFA044674B1FF
:1020D00026462888C043C0042BD4286EB0F5005F84
:1020E00020D00DDCA0B1B0F5805F0FD115E06B48BA
:1020F000EA6C2030016821F0300111430160E8E70B
:10210000B0F5405F13D0B0F5804F10D001240FE040
:10211000386840F40030386009E00198002102F08E
:1021200053FA03E00098002102F0DEFA04468CB175
:1021300026462888C043800429D4686EB0F5403F05
:1021400023D010DC08B3B0F5803F14D0B0F5003FC9
:102150000FD115E02A6ED8F8001021F4E0411143A8
:10216000C8F80010E5E7B0F5802F0ED0B0F5A02F2D
:102170000BD001240AE00198012102F025FA03E0C6
:102180000098012102F0B0FA044694B1264628884E
:10219000C04340042AD4D5F8B000B0F1405F23D04A
:1021A00010DC08B3B0F1805F14D0B0F1005F0FD144
:1021B00015E06A6ED8F8001021F4E0211143C8F848
:1021C0000010E4E7B0F1804F0ED0B0F1A04F0BD07B
:1021D00001240AE00198012102F0F6F903E00098D9
:1021E000012102F081FA044674B126462888C043D2
:1021F00000041FD4286FD8B1B0F1805F0ED0B0F1C9
:10220000005F10D0012414E0D5F8B020D9F80010F8
:1022100021F0E0411143C9F80010E7E7386840F4C5
:102220000030386004E00198012102F0CDF9044645
:1022300074B126462868C043C0011ED4A86CD0B132
:1022400001280ED0022811D0032814D0012413E055
:102250002A6FD8F8001021F040511143C8F800103F
:10226000E8E7386840F40030386004E00198022163
:1022700002F0AAF90446ACB126462868DFF81CB083
:10228000C043ABF11C0B400252D40548016841F435
:1022900080710160FEF7FEFF824611E02C44025877
:1022A00000480258FA48AA6C016821F00301114362
:1022B0000160E2E7FEF7EEFFA0EB0A00642835D8E4
:1022C000F4480068C005F5D58CBBDFF8C4A3B5F8A9
:1022D000B4100AF1240ADAF8000001F4407100F4A5
:1022E0004070884211D0DAF80010DAF8002021F4AA
:1022F000407142F48032CAF80020DAF8002022F45B
:102300008032CAF80020CAF80010D5F8B400B0F541
:10231000807F1AD1FEF7BEFF029012E0FEF7BAFFEF
:102320000299411A41F2883081420AD90324264693
:102330002878DFF85CA3C0430AF1080AC00721D05F
:102340003CE0DAF800008007E8D5D5F8B410C1F316
:102350000120032858460DD0016821F47C5101600A
:10236000B5F8B420DAF80010C2F30B021143CAF832
:102370000010DDE7C84A036802EA111223F47C5119
:102380001143ECE7E86F182816D005DCA0B1082847
:1023900008D0102804D10AE020280DD028280BD01E
:1023A00001240AE00198012102F00EF903E00098EF
:1023B000012102F099F9044664B126462878C04309
:1023C00080071ED4A86F062819D2DFE800F0160C8B
:1023D00011161616EA6FDAF8001021F038011143D1
:1023E000CAF80010EAE70198012102F0EDF803E0D5
:1023F0000098012102F078F904467CB100E0012444
:1024000026462878C04340071FD4D5F894000628F4
:1024100019D2DFE800F0160C11161616AA6FDAF8BA
:10242000001021F007011143CAF80010E9E70198F4
:10243000012102F0C9F803E00098012102F054F9EB
:102440000446A4B100E0012426462878C043800653
:102450002BD4D5F89000B0F1405F24D011DC10B33C
:10246000B0F1805F15D0B0F1005F10D116E0D5F863
:102470009420D9F8001021F007011143C9F8001089
:10248000E3E7B0F1804F0ED0B0F1A04F0BD00124A4
:102490000AE00198002102F097F803E00098022179
:1024A00002F022F9044694B126462878C04340063B
:1024B0002BD4D5F89C00B0F5406F24D011DC10B3BC
:1024C000B0F5806F15D0B0F5006F10D116E0D5F8DB
:1024D0009020DAF8001021F0E0411143CAF8001012
:1024E000E3E7B0F5805F0ED0B0F5A05F0BD001241C
:1024F0000AE00198002102F067F803E00098022149
:1025000002F0F2F8044694B126462878C04300064B
:102510002BD4D5F8A000B0F5C04F24D011DC10B3F7
:10252000B0F5005F15D0B0F5804F10D116E0D5F8AA
:102530009C20D9F8001021F4E0511143C9F8001093
:10254000E3E7B0F5004F0ED0B0F5204F0BD00124DB
:102550000AE00198002102F037F803E00098022118
:1025600002F0C2F8044654B126462878C04300075A
:102570001ED4D5F88400B0F5805F0AD00FE0D5F8FE
:10258000A020D9F8001021F460411143C9F80010CF
:10259000EBE70098022102F0A7F800B10126D5F878
:1025A0008420DAF8001021F440511143CAF80010D9
:1025B0002878C043C00613D4D5F89800B0F5807FC2
:1025C00005D10098022102F08FF800B10126D5F85C
:1025D0009820D9F8001021F440711143C9F8001077
:1025E0002868C043000316D4D5F8A40038B1B0F56C
:1025F000803F09D0B0F5003F0BD001240AE00198DC
:10260000002101F0E1FF03E00098022102F06CF8E4
:1026100004468CB126462868C043400322D4D5F82E
:102620008800B0F5801F11D0B0F5001F13D0B0F5B1
:10263000401F15D0012414E0D5F8A420D9F80010CB
:1026400021F440311143C9F80010E4E7386840F440
:102650000030386004E00098012102F045F804469B
:102660005CB126462868C043C00323D4286DA8B1B6
:10267000B0F5803F17D001241BE0D5F88820DAF8A8
:10268000001021F440111143CAF80010EAE70000DD
:102690004C44025800480258CFFFFF00386840F40D
:1026A0000030386004E00198022101F08DFF0446FB
:1026B000E4B126462868C043800005D40098022172
:1026C00002F012F800B101262868C04380031BD431
:1026D000D5F88000B0B1B0F5807F0FD0B0F5007FA5
:1026E00010D0B0F5407F0DD001240CE05A482A6D7F
:1026F000016821F4803111430160DBE7386840F460
:1027000000303860ECB326462868C043C00207D4C6
:102710006A6FD8F8001021F000411143C8F800108A
:102720002868C043C00008D4D5F8B820DBF80010F2
:1027300021F480411143CBF800102868C043800287
:1027400007D4EA6ED8F8001021F080711143C8F860
:1027500000102868C04340000CD4DBF8001021F4BE
:102760000041CBF80010DBF80010D5F8BC20114375
:10277000CBF800102868C04308D437486A6D016858
:1027800000E018E021F04051114301602868C04387
:10279000000208D4D5F88C20DAF8001021F44001AA
:1027A0001143CAF8001028790024C04300F001004A
:1027B00020430AD00FE0D5F88020DAF8001021F489
:1027C00040711143CAF800109EE70198002101F002
:1027D000FBFE00B106462879C04300F0020020430A
:1027E00005D10198012101F0EFFE00B106462879DC
:1027F000C04300F00400204305D10198022101F0FC
:10280000E3FE00B106462879C04300F008002043EB
:1028100005D10098002101F067FF00B10646287934
:10282000C04300F01000204305D10098012101F0C1
:102830005BFF00B106462879C04300F02000044346
:1028400004D10098022101F04FFF00B916B1012018
:10285000BDE8FE8F0020FBE74C4402582DE9F05FF5
:1028600004000F467ED0DFF83882D8F8000000F070
:102870000F00B8420CD2D8F8001021F00F013943F4
:10288000C8F80010D8F8000000F00F00B84269D175
:102890002078844D40070AD52069296801F070012D
:1028A000884204D9296821F0700101432960207809
:1028B0007C4E361D00070AD56069316801F0700151
:1028C000884204D9316821F07001014331602078D9
:1028D000C0060AD5A069316801F4E061884204D9D4
:1028E000316821F4E061014331602078DFF8B4B150
:1028F00080060BF1080B0CD5E1695846DBF8002087
:1029000002F07002914204D9026822F070020A4378
:102910000260207880070AD5E068296801F00F017D
:10292000884204D9296821F00F01014329602078E9
:10293000C0073ED05B49A2682868183920F470604F
:10294000104328606068022818D0032819D009684D
:10295000012819D0490700294ADADFF848A1AAF16D
:10296000080A00E044E0DAF8002022F007020243FF
:10297000CAF80020FEF78EFC814612E00968890340
:10298000E9E709688901E6E7C905E4E7FEF782FCA3
:10299000A0EB090141F28830814202D90320BDE851
:1029A000F09F6168DAF8000000F03800B0EBC10F6A
:1029B000ECD1207880070AD5E068296801F00F0182
:1029C000884204D2296821F00F0101432960D8F818
:1029D0000010404601F00F01B9420BD9016821F007
:1029E0000F0139430160006800F00F00B84201D0C8
:1029F0000120D4E7207840070AD52069296801F032
:102A00007001884204D2296821F0700101432960D5
:102A1000207800070AD56069316801F070018842AA
:102A200004D2316821F07001014331602078C00682
:102A30000AD5A069316801F4E061884204D23168A6
:102A400021F4E06101433160207880060CD5E16912
:102A50005846DBF8002002F07002914204D202686E
:102A600022F070020A43026000F026F80E492A683C
:102A70002B68C2F3032203F00F038A5CC95C02F0E7
:102A80001F0201F01F01D040084A20FA01F1116035
:102A90000749086007480068BDE8F05FFFF730B9F4
:102AA0000020005218440258164D0008140000245B
:102AB0001000002408000024454970B54548096805
:102AC000434B103B11F0380208D00111082A03D003
:102AD000102A0BD0182A0BD0084670BD1968890639
:102AE000FBD51968C1F3C101C84070BD3A4870BD3B
:102AF0003749374D18310C1D24350A680968266896
:102B00002D6802F0030406F00102C1F30511C5F3BC
:102B1000CC0515FB02F200EE102AB8EE400AE9B32C
:102B20002F4ADFED2E0AB7EE001A6CB1DFED2D1A39
:102B3000012C01D0022C43D002EE101A1068F8EEDE
:102B4000422A81EEA22A1EE01C68A40611D51B6849
:102B500001EE901A1168C3F3C103F8EE612AD84060
:102B600001EE900AC1F30800F8EE611A81EEA22A84
:102B70000BE001EE901ADFED1C2A00BFF8EE611A9F
:102B8000106882EEA12AC0F3080001EE900AF8EE68
:102B9000611A40EE201A31EE810A00E015E022EEC3
:102BA000000A1068C0F34620401C00EE900AF8EEC0
:102BB000600A80EE201ABCEEC10A10EE100A70BD49
:102BC00001EE901ADFED092AD8E7002070BD000061
:102BD000104402580090D00340787D010000003975
:102BE000304402580024744A0024744C20BCBE4B6C
:102BF0002DE9F05F04007DD0FF4F2078FE4D18379F
:102C0000DFF8F493103DC00748D0D9F800003968C8
:102C100000F03800102815D0182803D101F0030067
:102C200002280FD06068B0F5803F12D010B1B0F527
:102C3000A02F18D0286820F480302860286820F45D
:102C4000802009E02868800328D560680028D2D059
:102C500024E0286840F480302860606888B1FEF77E
:102C600019FB064609E0286840F480202860F0E758
:102C7000FEF710FB801B64286FD828688003F7D507
:102C80000CE0FEF707FB064605E000BFFEF702FB7F
:102C9000801B6428F0D828688003F7D4207841F29C
:102CA0000308D54E0C3E800769D5D9F80000396875
:102CB00010F038000ED0182801D188070AD0E0683B
:102CC00090B3296821F0190101432960FEF7E2FA67
:102CD000824631E02868400702D5E06800288AD0A3
:102CE000E168286820F0190008432860FEF7D2FA4E
:102CF000824607E0DFE000BFFEF7CCFAA0EB0A0057
:102D00000228B9D828684007F6D500BFFEF7BCFAFC
:102D100040451BD82069402812D0316821F47C310D
:102D200041EA003030602AE018E000BFFEF7B2FA56
:102D3000A0EB0A0002289FD828684007F6D5E5E7EF
:102D4000306820F47C3040F40030EBE7207C3168C0
:102D500021F0FE4141EA0060E4E70DE1286820F03F
:102D600001002860FEF796FA824605E0FEF792FA27
:102D7000A0EB0A0002288DD828684007F6D42078F6
:102D8000C0065DD5D9F80000DFF86CB2396800F0F4
:102D90003800ABF1040B082810D0182803D101F03B
:102DA000030001280AD0E0690028286838D040F0E4
:102DB00080002860FEF76EFA824623E02868C0058E
:102DC00023D5E069802876D11FE0206A202821D011
:102DD000316821F0F84141EA8060306030E000BFA6
:102DE00094F82010DBF8002022F07C5242EA0161C6
:102DF000CBF8001024E000BFFEF74CFAA0EB0A006D
:102E0000022898D82868C005F6D5FEF73DFA404557
:102E1000E6D8DAE7306820F0F84040F08040DCE7A0
:102E200020F080002860FEF735FA064605E000BF76
:102E3000FEF730FA801B02289DD82868C005F7D419
:102E40002078000729D56C486169643000298046E4
:102E5000016811D041F001010160FEF71BFA06463E
:102E600005E000BFFEF716FA801B0228C9D8D8F883
:102E700000008007F6D510E021F001010160FEF7A7
:102E800009FA064605E000BFFEF704FA801B022897
:102E900072D8D8F800008007F6D42078800623D5B1
:102EA000A0690028286810D040F480502860FEF700
:102EB000F1F9064605E036E1FEF7ECF9801B022841
:102EC0005AD828688004F7D50EE020F48050286096
:102ED000FEF7E0F9064604E0FEF7DCF9801B022865
:102EE0004AD828688004F7D4207840074FD5DFF807
:102EF0000C81D8F8001041F48071C8F80010FEF77A
:102F0000C9F9064605E000BFFEF7C4F9801B642836
:102F100032D8D8F80000C005F6D5374EA068603624
:102F200001280AD008B1052813D0306820F001002C
:102F30003060306820F0040002E0306840F00100AA
:102F40003060A06841F2883A90B1FEF7A3F980465C
:102F50000AE0306840F004003060EEE7FEF79AF9CE
:102F6000A0EB0801514507D830688007F6D50EE080
:102F7000FEF790F9804607E084E000BFFEF78AF98B
:102F8000A0EB080151457DD830688007F6D4606A0F
:102F9000B0B3DFF86480D9F8001008F120084FF6CC
:102FA000F87B08F10409C1F3C2010329A8F1040A5E
:102FB00069D00228286820F08070286003D0FEF7CE
:102FC00069F9044684E0FEF765F9064605E000BFAE
:102FD000FEF760F9801B022877D828688001F7D4B3
:102FE000E26A40F2F331386854F8283F884340EAF7
:102FF00002101843386004E0104402580048025898
:10300000B5E0217B434622894FF4FE0C208A4FF025
:10301000FE474902267D521E401EA1F50071C2F3F3
:1030200008088AB2761E0CEA004042EA080202430F
:10303000504607EA06610A431A60DAF8002022F0D7
:103040000102CAF80020D9F80020266A22EA0B0201
:1030500042EAC602C9F80020DAF80010A26921F09D
:103060000C011143CAF800100168E26921F0020165
:1030700011430160016841F480310160016841F44D
:10308000003101E021E027E00160016841F4802186
:103090000160016841F001010160286840F0807022
:1030A0002860FEF7F7F8044605E000BFFEF7F2F8E7
:1030B000001B022809D828688001F7D557E000BF17
:1030C000FEF7E8F8001B022802D90320BDE8F09FB4
:1030D00028688001F4D44AE039680128D8F8000053
:1030E00021D0A26A01F0030393421CD1E26AC1F32A
:1030F00005118A4217D1216BC0F30802491E8A428A
:1031000011D1616BC0F34622491E91420BD1A16BD4
:10311000C0F30642491E914205D1E16BC0F306603F
:10312000491E814201D00120D0E7A16C4E46D9F85A
:103130000000C0F3CC00814219D0DAF800005546F7
:1031400020F00100CAF80000FEF7A4F84FEA0007DB
:10315000FEF7A0F8B842FBD0A26C306820EA0B0062
:1031600040EAC2003060286840F00100286000207A
:10317000ACE7401EB0F1807F10B501D3012010BD37
:103180004FF0E02460610F21601701F050FD002036
:10319000A0610721216110BDFEE7806B0021826BD9
:1031A00002B11165C26B02B1116501F0BDB800003A
:1031B0002DE9F05F846B00254C4B4C4E4B4F183380
:1031C000DFF828C13036DFF824B14837474A0CF120
:1031D000600CDFF81CE10BF1780BDFF81891DFF8D9
:1031E00018A1A16BE9B30968914237D0994235D053
:1031F000B14233D0B94231D061452FD059452DD09D
:10320000DFF8E88008F19008414527D0DFF8DC803E
:1032100008F1A808414521D0DFF8D480A8F1300892
:1032200041451BD0DFF8C880A8F11808414515D0EA
:10323000714513D0494511D051450FD0DFF8B88002
:1032400008F11808414509D0DFF8AC8008F13008D2
:10325000414503D0DFF8A08008F14808496801B96A
:103260000125E16B79B30968914229D0994227D0B1
:10327000B14225D0B94223D0614521D059451FD054
:103280001A4A903291421BD0184AA832914217D064
:10329000174A303A914213D0154A183A91420FD04A
:1032A00071450DD049450BD0514509D0124A18320D
:1032B000914205D0104A3032914201D00E4A483234
:1032C000496801B90125FDF775FD02280CD0002DD4
:1032D0000AD02068416841F4004141602046BDE8C1
:1032E000F05F102100F02CB9BDE8F09F1000024003
:1032F00040040240580402407004024010B5846B40
:103300002068016821F400410160608D40B1228D88
:10331000618D606AFF290244626203D9FF2002E0E6
:1033200020210FE0608D2085216883B2E06B24317D
:10333000FDF746FD28B12046BDE81040102100F001
:10334000FFB840212046BDE8104000F059B810B544
:10335000846B2068016821F480410160608D40B178
:10336000218D628D606AFF2A0144616203D9FF20CA
:1033700002E020210FE0608D2085226883B2A06BDF
:103380002832FDF71DFD28B12046BDE81040102170
:1033900000F0D6B840212046BDE8104000F030B81B
:1033A000CA074FF028034FF0000210B506D090F87E
:1033B0004140422233EA040400D0F2228C0707D5B0
:1033C00090F8414042F04402A34301D042F0B002E1
:1033D0000B0401D542F0B802102904D0202905D0F1
:1033E000402906D007E042F0900204E042F02002BB
:1033F00001E042F04002006801689143016010BDA5
:1034000010B51E4C0022436BA34217D01C4CA342A4
:1034100014D01C4CA34211D00B0400D5B822CB070A
:1034200001D042F0F2028B0701D542F0F4021029DC
:1034300016D020291CD142F0200219E00B0400D53F
:10344000B822CB0701D042F0F2028B0701D542F03F
:10345000F402102904D0202905D0402906D007E025
:1034600042F0900204E042F0600201E042F04002CB
:10347000006801681143016010BD0000DD3B0008D9
:10348000D53F0008ED3C000801688A69D2439207E5
:1034900001D400228A6200688169C943C90703D048
:1034A000816941F00101816170472DE9F0470446CF
:1034B00090F841002822002508218243206804D08A
:1034C000C16184F84050BDE8F087876986694FF094
:1034D000FE088268D0F80CC04FF40049E36808EA9F
:1034E00016460CF0FE08022BC7F30047C2F3090290
:1034F00007D049462046FFF753FF324684F8405034
:1035000010E0062306F0060603EAD2139E420ED10F
:10351000A36C5B1CA364A36C022BD4D1A564C16112
:1035200084F8405039462046FDF711FFCBE7494665
:103530002046FFF735FF424684F84050F2E700008E
:1035400070B5444A044690F84100002584F8425082
:10355000E2626585626C282842EA0102626433D027
:10356000292831D02A282FD048F203012046FFF71E
:1035700017FF2046FFF788FF94F84100602813D01A
:10358000202184F8411020688269D24392060BD42E
:103590008269D243D20605D41022C261606C40F029
:1035A000040060642068C1616563A16B206B2A4ED2
:1035B00019B1112812D0212810D0E16BF1B31228D3
:1035C00024D0222822D03EE003212046FFF7E8FE47
:1035D00022492820616384F84100E6E720680168F9
:1035E000490403D5016821F480410160A06BFDF717
:1035F000E3FB012827D0A06B066584F84050A06B40
:10360000FDF796FA002823D0A06B16E02068016829
:10361000090403D5016821F400410160E06BFDF766
:10362000CBFB01280FD0E06B066584F84050E06BBF
:10363000FDF77EFA00280BD0E06B00E003E0016D9F
:10364000BDE8704008472046BDE8704000F06CBE01
:1036500070BD00000000FFFF9B310008E141000841
:1036600070B50446164AC843002541074FF02000B4
:10367000E262256384F8410084F84250656311D406
:103680002068616A406A0870606A401C6062208D30
:1036900040B1618D401E2085491E6185606C40F0FF
:1036A0000400606448F203012046FFF779FE2168B8
:1036B0001020C861204684F84050FDF741FF70BDDE
:1036C0000000FFFFF8B50446006820260D46C661DD
:1036D00094F84100212804D094F84100222806D013
:1036E0000BE001212046FFF75BFE112004E00221E0
:1036F0002046FFF755FE122020632068E9432C4B3B
:1037000000255FEAC16C42682A4F02EA0302426068
:10371000E762656306D422681020D061606C40F0D7
:103720000400606494F84100602805D1480703D480
:103730002068406AC0B200902046FFF7A5FE606C8A
:1037400094F84110602900D028B1616C2046BDE892
:10375000F840FFF7F5BE94F84100212812D094F804
:10376000410022280DD184F84160256394F842007D
:1037700084F842504028204684F8405014D0FDF789
:10378000E0FEF8BD84F84160256394F8420084F8B7
:1037900042504028204684F8405002D0FDF7D2FE27
:1037A000F8BDFDF7CFFEF8BDFDF7CCFEF8BD00007B
:1037B00000E800FE0000FFFF70B504460025202051
:1037C00084F8425094F8411021290ED0122184F837
:1037D00041002163022120466563FFF7E1FD204699
:1037E00084F84050FDF7ADFE70BD112184F8410012
:1037F0002163012120466563FFF7D2FD204684F84E
:103800004050FDF79FFE70BD2DE9F05F0D46016849
:1038100020270446D1F80080C66A90F84100CF61A5
:10382000212808D0292806D022280BD02A2809D000
:1038300028280ED014E048F201012046FFF7B0FD21
:1038400021200CE048F202012046FFF7A9FD2220CA
:1038500005E048F203012046FFF7A2FD00202063A7
:1038600020687349426842F400424260206842681E
:103870000A4042602046FFF707FE6FEA08016D4AE2
:103880006D4BDFF8B8C14804DFF8B491DFF8B4A19C
:10389000DFF8B4B1DFF8B4E10BD42068D0F80080D1
:1038A00028F48048C0F80080A06B0CE04068608578
:1038B00037E0080435D42068D0F8008028F40048A8
:1038C000C0F80080E06B60B300689042EED0984290
:1038D000ECD06045EAD04845E8D05045E6D05845A0
:1038E000E4D07045E2D0594A18329042DED0584AAE
:1038F0009042DBD0564A18329042D7D0544A3032E8
:103900009042D3D0524A48329042CFD0504A60328F
:103910009042CBD04E4A78329042C7D04C4A903237
:10392000C4E7E84340070FD4206825F00405626A25
:10393000406A1070606A401C6062208D20B1628D08
:10394000401E2085521E6285608D18B1606C40F06B
:1039500004006064E843DFF8FC80C00632D4C80687
:1039600030D4618D102051B12168C861606C40F085
:103970000400606416B3B6F1807F1FD022E094F893
:103980004110282902D1B6F1007F04D094F84110EB
:10399000292905D00FE029462046FFF761FE11E0F6
:1039A000464508D02168C8612046FFF76DFD2046D6
:1039B00000F052F806E02168C86103E0616C20461F
:1039C000FFF7BEFD002684F84260606C666368B154
:1039D000616C2046FFF7B4FD94F84100282815D10A
:1039E00029462046BDE8F05FFFF73ABEE06A45464B
:1039F000A8420DD0204600F02FF8E56284F841700F
:103A00002663204684F84060FDF79AFDBDE8F09FEC
:103A100094F8410084F8417022282663204684F8F7
:103A2000406002D0FEF735F9F0E7FEF731F9EDE737
:103A300000E800FE10000240280002404000024062
:103A4000580002407000024088000240A00002407E
:103A5000100402400000FFFF70B504460068002516
:103A6000016884F84250C9434A0403D4016821F430
:103A7000804104E0090403D4016821F4004101609D
:103A800094F841102820292911D094F841102A29AE
:103A90000CD1222184F84100216302212046FFF746
:103AA0007FFC204684F84050FEF7F2F870BD2121DB
:103AB00084F84100216301212046FFF771FC204674
:103AC00084F84050FEF7E5F870BD00002DE9F0479E
:103AD000044600680026894617464FF02008354600
:103AE0008169C90641D51021C1612FE0B9F1FF3FBD
:103AF0002CD0FDF7CFFBC11B494502D8B9F1000F0F
:103B000024D12068426894F84210836902F480420C
:103B1000DB431B0415D4B2F5804F12D0202910D0FE
:103B2000416841F480414160FDF7B4FB074608E07D
:103B3000FDF7B0FBC01B192803D9012645F020056D
:103B400004E020688069C0438006F1D42068806961
:103B5000C043800602D5002EC8D003E016B9216804
:103B6000C1F81C80012645F0040521688869C2055A
:103B700005D54FF48072CA6145F001050126410563
:103B80000AD5216880054FF4806245F00805CA61B6
:103B90004FF0010602D40AE0800507D5206801260F
:103BA0004FF4007145F00205C16100E08EB120467E
:103BB000FFF76AFC20680021074F43683B404360E1
:103BC000606C2843606484F8418084F8421084F873
:103BD00040103046BDE8F08700E800FEF8B5044626
:103BE00090F8400001281AD0CB43012584F84050BA
:103BF000DE064FF000056FEA020012D4C20610D4B0
:103C000021681020C861606C40F0040060642021CD
:103C10002046FFF7F5FB2046FFF736FC60E0022068
:103C2000F8BD314A1E0639D4460637D420680168EB
:103C300021F040010160608D002820682AD0416891
:103C4000608DFF28C1F3090104D9FF2020854FF0C2
:103C5000807308E0608DE36A2085934201D0E36AB7
:103C600001E04FF00073009594F82820204600F002
:103C700043FB608D218D401A608594F84100222815
:103C80002068016803D041F48041016028E041F4DC
:103C90000041FAE74068800117D505E05E0618D4B8
:103CA000460616D4608D20B140212046FFF748FC1F
:103CB00016E020684168890112D4E16A914204D17A
:103CC000416841F4804141600AE02046FFF774FDFD
:103CD00006E09A0604D4800602D42046FFF7F2FCE0
:103CE000002084F84050F8BD0000FFFF2DE9F843A4
:103CF000044690F840004A4E01281AD0CB430125D3
:103D000084F84050DF064FF000076FEA020013D43A
:103D1000C20611D421681020C861606C40F0040014
:103D2000606420212046FFF76BFB2046FFF7ACFBC9
:103D300071E00220BDE8F8839A0708D4820706D410
:103D4000206D4FF0FF3122689062216563E01A0612
:103D50004FF0FF054FF080784FF000792FD44206E6
:103D60002DD401212046FFF71BFB10212046FFF731
:103D700047FB608DF0B1608DFF2803D925852A4669
:103D8000009733E0608D2085009736E0204600F0F4
:103D9000B3FA608D218D401A608594F84100222885
:103DA0002068016802D041F4804101E041F4004103
:103DB000016030E040212046FFF7C2FB2BE05A06AD
:103DC00022D4420620D401212046FFF7E9FA10212F
:103DD0002046FFF715FB94F84100222800D1114E30
:103DE000608DFF2806D925852A460096E06C43465B
:103DF00081B2CBE7608D2085009694F82810E06CA6
:103E00004B46CAB281B2C1E79A0604D4800602D4F6
:103E10002046FFF757FC002084F840708AE7000036
:103E200000200080002400802DE9F84F044690F81F
:103E300040004D4F0E46012816D0F0434FF00008C9
:103E4000012184F84010C3066FEA02050FD4E90689
:103E50000DD421681020C861606C40F004006064DB
:103E60002046FFF711FB72E00220BDE8F88F410702
:103E700008D4690706D4206826F00406616A406AFF
:103E8000087011E0810719D4A90717D4206D401CD0
:103E900006D0216D4FF0FF3022689162206556E018
:103EA000606A216800788862606A401C6062208DC8
:103EB000401E2085608D401E608548E001064FF061
:103EC000FF094FF0807A4FF0007B18D4690616D4B2
:103ED000608D08B1208D20B140212046FFF730FBD6
:103EE00035E0608DFF2805D9A4F828904A46CDF822
:103EF00000801CE0618D2185CDF800801EE0400629
:103F000025D4680623D401212046FFF749FA02216F
:103F10002046FFF775FA94F84100222800D1134F8C
:103F2000608DFF2807D9A4F828904A460097E06CD6
:103F3000534681B208E0608D2085009794F82810E0
:103F4000E06C5B46CAB281B2204600F0D5F9F0437E
:103F5000800605D4A80603D431462046FFF7B2FBFD
:103F6000002084F8408080E700200080002400804A
:103F70002DE9F843174604461548DAB2DDE90898FA
:103F80001E4600900023204600F0B6F942464946FE
:103F9000204600F048FAB8B9012EFDB208D02068DA
:103FA000390A816242464946204600F03CFA58B937
:103FB00020688562002240214B462046CDF80080D3
:103FC00000F0C7F9002800D00120BDE8F883000008
:103FD000002000802DE9F05F044690F840000026A4
:103FE0000128E36A0DD0C843012584F840508706B4
:103FF0006FEA020208D4950606D42046FFF704FCB7
:10400000E2E00220BDE8F09FC5067DD4D5067BD452
:1040100050044FF0100501D5100476D4DFF8B0A19C
:10402000DFF8ACB1DFF8A8C10AF1180A684F0BF14C
:10403000300BDFF8A0910CF1480CDFF89CE1E06B4D
:10404000F0B35FEA024843D40068B8423DD050451F
:104050003BD0584539D0604537D0484535D07045BC
:1040600033D0DFF8748108F1180840452DD0DFF80F
:10407000688108F13008404527D0DFF8608140456D
:1040800023D0DFF8588108F1180840451DD0DFF82B
:104090004C8108F13008404517D0DFF8408108F125
:1040A0004808404511D0DFF8348108F160084045E8
:1040B0000BD0DFF8288108F17808404505D000E0F2
:1040C00006E0DFF8188108F19008406800B9012681
:1040D000A06BA0B3520432D40068B8422DD0504532
:1040E0002BD0584529D0604527D0484525D070456C
:1040F00023D0394A183290421FD0374A303290428A
:104100001BD0364A904201E057E035E015D0334AE3
:104110001832904211D0314A303290420DD02F4A9D
:104120004832904209D02D4A6032904205D02B4A45
:104130007832904201D0294A9032406800B1F6B1FD
:1041400094F84100282802D1B3F1007F04D094F8FC
:104150004100292804D00FE02046FFF781FA33E020
:1041600013F5803F08D02068C5612046FFF78CF921
:104170002046FFF771FC27E02068C56124E0206835
:10418000C561606C40F00400606494F8410013B1B4
:10419000B3F1807F18D1212806D0292804D0222805
:1041A00004D02A2802D003E0212000E0222020634E
:1041B000616C2046FFF7C4F906E0000704D410073D
:1041C00002D42046FFF771F9002084F8400019E777
:1041D00010000240700002408800024010040240BB
:1041E0002DE9F04190F840300446C06A012B0DD013
:1041F000CB43012584F840509E066FEA020208D4A2
:10420000950606D42046FFF7FFFA6FE00220BDE8CE
:10421000F081384DDE064FF080762DD4D7062BD4B2
:10422000638D10226BB12168CA61616C41F0040199
:10423000616408B1B04259D1616C2046FFF780F942
:1042400054E094F84130282B02D1B0F1007F04D023
:1042500094F84110292904D00BE02046FFF700FA1A
:1042600044E0A84205D02068C2612046FFF70CF95F
:1042700039E02068C26139E05F0715D4570713D4CD
:10428000618D61B12168626A496A1170616A491C75
:104290006162218D491E2185618D491E6185618D77
:1042A00021BBA8421FD121E01D0705D4150703D467
:1042B0002046FFF7FAF819E0990717D4910715D4AB
:1042C000618D69B1606A216800788862606A401C0B
:1042D0006062608D401E6085208D401E208505E057
:1042E000B04200D010B92046FFF7B6FB002084F89A
:1042F00040008CE70000FFFF70B50068C1F30901C2
:1043000041EA0241074D049C19434FF4806642681C
:10431000214306EA54532B439A4321F000410A43B8
:10432000426070BDFF63FF0310B590F8412000218B
:10433000602A05D0016380F84010FDF709F810BD30
:10434000202280F84120016380F84010FCF7FEFF36
:1043500010BD2DE9F0411D4617460E460446DDF816
:10436000188028E0424629462046FFF7AFFB10B1EF
:104370000120BDE8F081681C1DD0FCF78BFFA0EB8D
:104380000800A84200D8B5B92068806936EA000064
:104390000FD00020B8420ED1626C002084F840009B
:1043A000202142F02002626484F8411084F8420027
:1043B000DEE70120EEE72068806936EA000004D0DD
:1043C0000020B842CED00020D3E70120F9E770B535
:1043D00016460D4604461FE0324629462046FFF7A2
:1043E00075FB08B1012070BDFCF754FF801BA8428B
:1043F00000D88DB920688069C04380060CD5626CF6
:10440000002084F84000202142F02002626484F8F9
:10441000411084F84200E5E720688069C0438006C7
:10442000DAD4002070BD70B516460D46044621E072
:10443000324629462046FFF749FB08B1012070BDEE
:10444000681C17D0FCF726FF801BA84200D88DB946
:1044500020688069C04380070CD5626C002084F816
:104460004000202142F02002626484F8411084F868
:104470004200E3E720688069C0438007D8D4002069
:1044800070BD000010B50021C0F880110349006222
:10449000C16200F007F8002010BD0000A144000830
:1044A000704700003EB50021C0F88011064C012283
:1044B000D4E9003402916946CDE900348DF800203A
:1044C00000F0A3F93EBD0000284D00080D4808B5D6
:1044D000016841F080010160016801F080010091F4
:1044E000016841F002010160016801F002010091E0
:1044F000016841F008010160006800F008000090C8
:1045000008BD0000E04402581348002110B5114CCA
:104510000123124A0460C0E90121C0E9033141616D
:104520008161C1610162FCF717FF08B1FCF73FF937
:1045300009480021FCF7B4FE08B1FCF738F9064839
:104540000021FCF7D9FE002803D0BDE81040FCF79D
:104550002EB910BD0058004048000024B1757030DD
:104560001548002170B5134A0124144B0260E5047C
:10457000C0E90131C0E9034141611830660480E8B7
:1045800062001838FCF7E8FE08B1FCF710F90A4899
:104590000021FCF785FE08B1FCF709F90648002167
:1045A000FCF7AAFE002803D0BDE87040FCF7FFB876
:1045B00070BD0000001C00589C000024B1757030D4
:1045C000FEE7FEE7704700002DE9F047454D044641
:1045D00089464FF0000A2868C04380070AD0414E40
:1045E000283E306820F080603060FCF753FE0746BC
:1045F000B04608E00120BDE8F08700BFFCF74AFEA6
:10460000C01B022867D8D8F800000001F6D4206843
:1046100029684FF4FE0721F47C313E0241EA003064
:104620002860207AA389B4F804C040022D4D2D499A
:104630005B1E227CACF1010C1035091DA0F5007049
:1046400080B2521ECCF3080C07EA034340EA0C0088
:10465000184306EA0262104328600868626920F085
:10466000C000104308600A68A06922F020020243DB
:104670000A60281D0A6822F010020A6002684FF6DC
:10468000F873E4699A4342EAC40202600868B9F127
:10469000000F40F010020A6011D00868B9F1010F54
:1046A00011D040F400100860D8F80000444640F0F3
:1046B0008060C8F80000FCF7EDFD05460DE00868D5
:1046C00040F40020EFE740F48010ECE7FCF7E2FD57
:1046D000401B022801D903208DE720680001F5D591
:1046E000504688E7284402582DE9F047454D0446D6
:1046F00089464FF0000A2868C04380070AD0414E1F
:10470000283E306820F080503060FCF7C3FD07463B
:10471000B04608E00120BDE8F08700BFFCF7BAFD15
:10472000C01B022867D8D8F800008000F6D4208883
:1047300029684FF4FE0721F07C713E0241EA0050E7
:104740002860207AA389B4F804C040022D4D2D4979
:104750005B1E227CACF1010C1835091DA0F5007020
:1047600080B2521ECCF3080C07EA034340EA0C0067
:10477000184306EA0262104328600868626920F460
:104780004060104308600A68A06922F40072024386
:104790000A60281D0A6822F480720A6002684FF6D7
:1047A000F873E4699A4342EAC40202600868B9F106
:1047B000000F40F480720A6011D00868B9F1010F4F
:1047C00011D040F080700860D8F80000444640F0F6
:1047D0008050C8F80000FCF75DFD05460DE0086854
:1047E00040F48000EFE740F40000ECE7FCF752FDF6
:1047F000401B022801D903208DE720688000F5D5F1
:10480000504688E728440258704710B5044640686F
:104810004FF0FF3268B9488820614878E060486806
:1048200060614B783BB1012B04F13C000FD0022BAF
:1048300011D0104610BD0878FF22001D2060886846
:10484000E06304F140000978FBF7DFFD09E00A7836
:10485000121D226002E00A7822600A788968FBF75C
:104860008FFD206910B9204600F060F8012010BDCE
:1048700070470146C06800280CD0436A0022CB6014
:1048800042628262CB6803B90A618168022901D160
:1048900000F068B8704700002DE9F041012B154683
:1048A0000F46044602D0022B03D101E0012600E0AE
:1048B00002260421012000F0CBF902460020022349
:1048C00015805680164E20606060A360C4E9050222
:1048D00020626062E661E360E062D6E900121143A3
:1048E0000AD1104B0122B0607362F060C6E9040780
:1048F0000D48F061C6E900213846FCF72AFD202862
:10490000FAD14FF496723846A9B21346FCF784FDEB
:10491000032803D04FF0FF30BDE8F0810020FBE713
:1049200020000024D8420124714800080121416080
:1049300000224262C169CB686BB10A69826209696F
:104940004862C169C1F81000EFF31481890707D4E8
:10495000C069FFF78EBF0861C169C8608262F3E772
:10496000704700002DE9FE4F044600200221D4E9E3
:1049700006656F69AC60616060624FF6FF79D4F8DC
:104980003C80E16851B1012917D1B86B04F1400AAC
:10499000B8B390F83510022934D035E0F86B70B117
:1049A00020881FFA88F2696A001F80B2CDE90010E2
:1049B000738838463188FCF739FFBDE8FE8F3868C8
:1049C000016811F0020101600DD020881FFA88F201
:1049D000696A001F80B2CDE90010738838463188BB
:1049E000FCF7B0FFE9E722883846696A121F92B2E5
:1049F0008DE8060273881FFA88F23188FCF764FE9E
:104A0000DBE715E0FBF7E4FE22685146686A121FF7
:104A1000FBF7B6FC20881FFA88F2696A001F80B293
:104A2000CDE90010738838463188FCF7DFFFC4E712
:104A30003868016811F00201016022685146686A15
:104A4000A2F104020FD0FBF79BFC20881FFA88F22A
:104A5000696A001F80B2CDE900107388384631883A
:104A6000FDF74CF8A9E7FBF78BFC1E210548012355
:104A70008DF80410EC21CDF8009001AAFCF77EFD22
:104A80009BE7000048000024FDF704B930B59DB055
:104A90004C216846FBF7C1FC202113A8FBF7BDFCA5
:104AA0000220FDF7DBF9214800242149026842F485
:104AB0004042026002680A6842F001020A60096826
:104AC00001F001011B9101688904FCD502200090CE
:104AD000402504950121039104220B923C23CDE94A
:104AE0000904CDE90C300FAB0E900C2183E81300C4
:104AF00068461294FEF77CF808B172B6FEE7082209
:104B00001A95CDE91625D30113AA3F200321CDE93B
:104B1000185382E81300042113A8FDF79FFE002814
:104B200001D072B6FEE71DB030BD00001848025833
:104B30002C0400583348F0B5334A016841F4700141
:104B40000160106800F00F00072804D2106820F000
:104B50000F00C01D10602D4900202C4C10340B6834
:104B60002B4D43F001030B6020600B682B400B6062
:104B7000136803F00F03072B04D9136823F00F0306
:104B8000DB1D1360214C234A1834234B261D371D8F
:104B900020601E4C214D28343060261D3860371DA2
:104BA00023603B1D35601C1D3A60251D2E1D1860BD
:104BB000331D22602860326018600A68134B184C5D
:104BC00022F4802260330A60186020686FF30F00BF
:104BD000B0F1005F03D213490120C1F808010B486E
:104BE000D4300168C9040BD4026843F2D2010E4BE1
:104BF00042F4805202601960016821F48051016022
:104C0000F0BD000088ED00E0002000520044025892
:104C10007FEDF6EA80020101000202020000FF01BE
:104C20000010005C0080005100400052FEE70907C0
:104C300000284FEA116104DB00F1E02080F8001445
:104C4000704700F00F0000F1E02080F8141D70475D
:104C500048430749C01C0B6803EBA002B2F5A04F04
:104C600001DB0020704703480A6000EB83007047B7
:104C700018000024F00000241FB5002400940194C3
:104C800002940394FDF78AF801208DF80C001F218F
:104C90008DF8081087228DF809208DF80D008DF809
:104CA000000068468DF80A408DF80E408DF80140EE
:104CB00001948DF80B408DF80F40FDF741F804206A
:104CC000FDF77AF8FCF7EEFFFFF7E0FEFFF7FEFBDB
:104CD000FFF746FCFFF718FC034C2068401C2060DF
:104CE00000F004F8F9E70000000000240549012362
:104CF0000548EC2210B5FFF7CFFDBDE81040024893
:104D0000FFF7C0BB48000024F04001244FF0407082
:104D1000E1EE100A704700000000010203040102E6
:104D2000030406070809000000010000FFFFFFFF61
:104D300000000000544D000800000024480000005E
:104D4000D40200089C4D000848000024D04801000F
:104D5000F002000800000000010000001000000048
:104D6000000000000090D0030090D003000000007D
:104D70000000000000000000000000000000000033
:104D80000000000000000000000000000000000023
:0C4D900000000000000000000000000017
:040000050800029954
:00000001FF
